:020000000000fe
:020001000003fa
:020002000006f6
:020003000009f2
:02000400000ded
:020005000010e9
:020006000013e5
:020007000016e1
:020008000019dd
:02000900001cd9
:02000a00001fd5
:02000b000023d0
:02000c000026cc
:02000d000029c8
:02000e00002cc4
:02000f00002fc0
:020010000032bc
:020011000035b8
:020012000039b3
:02001300003caf
:02001400003fab
:020015000042a7
:020016000045a3
:0200170000489f
:02001800004b9b
:02001900004e97
:02001a00005292
:02001b0000558e
:02001c0000588a
:02001d00005b86
:02001e00005e82
:02001f0000617e
:0200200000647a
:02002100006875
:02002200006b71
:02002300006e6d
:02002400007169
:02002500007465
:02002600007761
:02002700007a5d
:02002800007e58
:02002900008154
:02002a00008450
:02002b0000874c
:02002c00008a48
:02002d00008d44
:02002e00009040
:02002f0000933c
:02003000009737
:02003100009a33
:02003200009d2f
:0200330000a02b
:0200340000a327
:0200350000a623
:0200360000a91f
:0200370000ac1b
:0200380000b016
:0200390000b312
:02003a0000b60e
:02003b0000b90a
:02003c0000bc06
:02003d0000bf02
:02003e0000c2fe
:02003f0000c6f9
:0200400000c9f5
:0200410000ccf1
:0200420000cfed
:0200430000d2e9
:0200440000d5e5
:0200450000d8e1
:0200460000dbdd
:0200470000dfd8
:0200480000e2d4
:0200490000e5d0
:02004a0000e8cc
:02004b0000ebc8
:02004c0000eec4
:02004d0000f1c0
:02004e0000f4bc
:02004f0000f7b8
:0200500000fbb3
:0200510000feaf
:020052000101aa
:020053000104a6
:020054000107a2
:02005500010a9e
:02005600010d9a
:02005700011096
:02005800011392
:0200590001178d
:02005a00011a89
:02005b00011d85
:02005c00012081
:02005d0001237d
:02005e00012679
:02005f00012975
:02006000012c71
:02006100012f6d
:02006200013368
:02006300013664
:02006400013960
:02006500013c5c
:02006600013f58
:02006700014254
:02006800014550
:0200690001484c
:02006a00014b48
:02006b00014e44
:02006c0001523f
:02006d0001553b
:02006e00015837
:02006f00015b33
:02007000015e2f
:0200710001612b
:02007200016427
:02007300016723
:02007400016a1f
:02007500016d1b
:02007600017116
:02007700017412
:0200780001770e
:02007900017a0a
:02007a00017d06
:02007b00018002
:02007c000183fe
:02007d000186fa
:02007e000189f6
:02007f00018cf2
:02008000018fee
:020081000192ea
:020082000196e5
:020083000199e1
:02008400019cdd
:02008500019fd9
:0200860001a2d5
:0200870001a5d1
:0200880001a8cd
:0200890001abc9
:02008a0001aec5
:02008b0001b1c1
:02008c0001b4bd
:02008d0001b7b9
:02008e0001bab5
:02008f0001bdb1
:0200900001c1ac
:0200910001c4a8
:0200920001c7a4
:0200930001caa0
:0200940001cd9c
:0200950001d098
:0200960001d394
:0200970001d690
:0200980001d98c
:0200990001dc88
:02009a0001df84
:02009b0001e280
:02009c0001e57c
:02009d0001e878
:02009e0001eb74
:02009f0001ee70
:0200a00001f16c
:0200a10001f468
:0200a20001f764
:0200a30001fb5f
:0200a40001fe5b
:0200a500020156
:0200a600020452
:0200a70002074e
:0200a800020a4a
:0200a900020d46
:0200aa00021042
:0200ab0002133e
:0200ac0002163a
:0200ad00021936
:0200ae00021c32
:0200af00021f2e
:0200b00002222a
:0200b100022526
:0200b200022822
:0200b300022b1e
:0200b400022e1a
:0200b500023116
:0200b600023412
:0200b70002370e
:0200b800023a0a
:0200b900023d06
:0200ba00024002
:0200bb000243fe
:0200bc000246fa
:0200bd000249f6
:0200be00024cf2
:0200bf00024fee
:0200c0000252ea
:0200c1000255e6
:0200c2000258e2
:0200c300025bde
:0200c400025eda
:0200c5000261d6
:0200c6000264d2
:0200c7000267ce
:0200c800026aca
:0200c900026dc6
:0200ca000270c2
:0200cb000273be
:0200cc000276ba
:0200cd000279b6
:0200ce00027cb2
:0200cf00027fae
:0200d0000282aa
:0200d1000285a6
:0200d2000288a2
:0200d300028b9e
:0200d400028e9a
:0200d500029196
:0200d600029492
:0200d70002978e
:0200d800029a8a
:0200d900029d86
:0200da0002a082
:0200db0002a37e
:0200dc0002a67a
:0200dd0002a976
:0200de0002ac72
:0200df0002af6e
:0200e00002b26a
:0200e10002b566
:0200e20002b862
:0200e30002ba5f
:0200e40002bd5b
:0200e50002c057
:0200e60002c353
:0200e70002c64f
:0200e80002c94b
:0200e90002cc47
:0200ea0002cf43
:0200eb0002d23f
:0200ec0002d53b
:0200ed0002d837
:0200ee0002db33
:0200ef0002de2f
:0200f00002e12b
:0200f10002e427
:0200f20002e723
:0200f30002e920
:0200f40002ec1c
:0200f50002ef18
:0200f60002f214
:0200f70002f510
:0200f80002f80c
:0200f90002fb08
:0200fa0002fe04
:0200fb000301ff
:0200fc000304fb
:0200fd000307f7
:0200fe00030af3
:0200ff00030cf0
:02010000030feb
:020101000312e7
:020102000315e3
:020103000318df
:02010400031bdb
:02010500031ed7
:020106000321d3
:020107000324cf
:020108000327cb
:020109000329c8
:02010a00032cc4
:02010b00032fc0
:02010c000332bc
:02010d000335b8
:02010e000338b4
:02010f00033bb0
:02011000033eac
:020111000340a9
:020112000343a5
:020113000346a1
:0201140003499d
:02011500034c99
:02011600034f95
:02011700035291
:0201180003548e
:0201190003578a
:02011a00035a86
:02011b00035d82
:02011c0003607e
:02011d0003637a
:02011e00036676
:02011f00036873
:02012000036b6f
:02012100036e6b
:02012200037167
:02012300037463
:0201240003775f
:0201250003795c
:02012600037c58
:02012700037f54
:02012800038250
:0201290003854c
:02012a00038749
:02012b00038a45
:02012c00038d41
:02012d0003903d
:02012e00039339
:02012f00039635
:02013000039832
:02013100039b2e
:02013200039e2a
:0201330003a126
:0201340003a422
:0201350003a61f
:0201360003a91b
:0201370003ac17
:0201380003af13
:0201390003b20f
:02013a0003b40c
:02013b0003b708
:02013c0003ba04
:02013d0003bd00
:02013e0003bffd
:02013f0003c2f9
:0201400003c5f5
:0201410003c8f1
:0201420003caee
:0201430003cdea
:0201440003d0e6
:0201450003d3e2
:0201460003d6de
:0201470003d8db
:0201480003dbd7
:0201490003ded3
:02014a0003e1cf
:02014b0003e3cc
:02014c0003e6c8
:02014d0003e9c4
:02014e0003ebc1
:02014f0003eebd
:0201500003f1b9
:0201510003f4b5
:0201520003f6b2
:0201530003f9ae
:0201540003fcaa
:0201550003ffa6
:020156000401a2
:0201570004049e
:0201580004079a
:02015900040997
:02015a00040c93
:02015b00040f8f
:02015c0004128b
:02015d00041488
:02015e00041784
:02015f00041a80
:02016000041c7d
:02016100041f79
:02016200042275
:02016300042472
:0201640004276e
:02016500042a6a
:02016600042c67
:02016700042f63
:0201680004325f
:0201690004355b
:02016a00043758
:02016b00043a54
:02016c00043d50
:02016d00043f4d
:02016e00044249
:02016f00044446
:02017000044742
:02017100044a3e
:02017200044c3b
:02017300044f37
:02017400045233
:02017500045430
:0201760004572c
:02017700045a28
:02017800045c25
:02017900045f21
:02017a0004621d
:02017b0004641a
:02017c00046716
:02017d00046913
:02017e00046c0f
:02017f00046f0b
:02018000047108
:02018100047404
:02018200047601
:020183000479fd
:02018400047cf9
:02018500047ef6
:020186000481f2
:020187000483ef
:020188000486eb
:020189000489e7
:02018a00048be4
:02018b00048ee0
:02018c000490dd
:02018d000493d9
:02018e000496d5
:02018f000498d2
:02019000049bce
:02019100049dcb
:0201920004a0c7
:0201930004a2c4
:0201940004a5c0
:0201950004a7bd
:0201960004aab9
:0201970004adb5
:0201980004afb2
:0201990004b2ae
:02019a0004b4ab
:02019b0004b7a7
:02019c0004b9a4
:02019d0004bca0
:02019e0004be9d
:02019f0004c199
:0201a00004c396
:0201a10004c692
:0201a20004c88f
:0201a30004cb8b
:0201a40004cd88
:0201a50004d084
:0201a60004d281
:0201a70004d57d
:0201a80004d77a
:0201a90004da76
:0201aa0004dc73
:0201ab0004df6f
:0201ac0004e16c
:0201ad0004e468
:0201ae0004e665
:0201af0004e961
:0201b00004eb5e
:0201b10004ee5a
:0201b20004f057
:0201b30004f353
:0201b40004f550
:0201b50004f84c
:0201b60004fa49
:0201b70004fd45
:0201b80004ff42
:0201b90005023d
:0201ba0005043a
:0201bb00050637
:0201bc00050933
:0201bd00050b30
:0201be00050e2c
:0201bf00051029
:0201c000051325
:0201c100051522
:0201c20005171f
:0201c300051a1b
:0201c400051c18
:0201c500051f14
:0201c600052111
:0201c70005240d
:0201c80005260a
:0201c900052807
:0201ca00052b03
:0201cb00052d00
:0201cc000530fc
:0201cd000532f9
:0201ce000534f6
:0201cf000537f2
:0201d0000539ef
:0201d100053bec
:0201d200053ee8
:0201d3000540e5
:0201d4000543e1
:0201d5000545de
:0201d6000547db
:0201d700054ad7
:0201d800054cd4
:0201d900054ed1
:0201da000551cd
:0201db000553ca
:0201dc000555c7
:0201dd000558c3
:0201de00055ac0
:0201df00055cbd
:0201e000055fb9
:0201e1000561b6
:0201e2000563b3
:0201e3000566af
:0201e4000568ac
:0201e500056aa9
:0201e600056da5
:0201e700056fa2
:0201e80005719f
:0201e90005739c
:0201ea00057698
:0201eb00057895
:0201ec00057a92
:0201ed00057d8e
:0201ee00057f8b
:0201ef00058188
:0201f000058385
:0201f100058681
:0201f20005887e
:0201f300058a7b
:0201f400058d77
:0201f500058f74
:0201f600059171
:0201f70005936e
:0201f80005966a
:0201f900059867
:0201fa00059a64
:0201fb00059c61
:0201fc00059f5d
:0201fd0005a15a
:0201fe0005a357
:0201ff0005a554
:00000001FF
